:1000000000000220B10A0000C9040000CD04000075
:10001000D1040000D5040000D9040000DD04000074
:10002000E1040000E5040000E9040000ED04000024
:10003000F1040000F5040000F9040000FD040000D4
:100040000105000005050000090500000D05000080
:100050001105000015050000190500001D05000030
:100060002105000025050000290500002D050000E0
:100070003105000035050000390500003D05000090
:100080004105000045050000490500004D05000040
:100090005105000055050000590500005D050000F0
:1000A0006105000065050000690500006D050000A0
:1000B0007105000075050000790500007D05000050
:1000C0008105000085050000890500008D05000000
:1000D0009105000095050000990500009D050000B0
:1000E000A1050000A5050000A9050000AD05000060
:1000F000B1050000B5050000B9050000BD05000010
:10010000C1050000C5050000C9050000CD050000BF
:10011000D1050000D5050000D9050000DD0500006F
:10012000E1050000E5050000E9050000ED0500001F
:10013000F1050000F5050000F9050000FD050000CF
:100140000106000005060000090600000D0600007B
:100150001106000015060000190600001D0600002B
:100160002106000025060000290600002D060000DB
:100170003106000035060000390600003D0600008B
:100180004106000045060000490600004D0600003B
:100190005106000055060000590600005D060000EB
:1001A0006106000065060000690600006D0600009B
:1001B0007106000075060000790600007D0600004B
:1001C0008106000085060000890600008D060000FB
:1001D0009106000095060000990600009D060000AB
:1001E000A1060000A5060000A9060000AD0600005B
:1001F000B1060000B5060000B9060000BD0600000B
:10020000C1060000C5060000C9060000CD060000BA
:10021000D1060000D5060000D9060000DD0600006A
:10022000E1060000E5060000E9060000ED0600001A
:10023000F1060000F5060000F9060000FD060000CA
:100240000107000005070000090700000D07000076
:100250001107000015070000190700001D07000026
:100260002107000025070000290700002D070000D6
:100270003107000035070000390700003D07000086
:100280004107000045070000490700004D07000036
:100290005107000055070000590700005D070000E6
:1002A0006107000065070000690700006D07000096
:1002B0007107000075070000790700007D07000046
:1002C0008107000085070000890700008D070000F6
:1002D0009107000095070000990700009D070000A6
:1002E000A1070000A5070000A9070000AD07000056
:1002F000B1070000B5070000B9070000BD07000006
:10030000C1070000C5070000C9070000CD070000B5
:10031000D1070000D5070000D9070000DD07000065
:10032000E1070000E5070000E9070000ED07000015
:10033000F1070000F5070000F9070000FD070000C5
:100340000108000005080000090800000D08000071
:100350001108000015080000190800001D08000021
:100360002108000025080000290800002D080000D1
:100370003108000035080000390800003D08000081
:100380004108000045080000490800004D08000031
:100390005108000055080000590800005D080000E1
:1003A0006108000065080000690800006D08000091
:1003B0007108000075080000790800007D08000041
:1003C0008108000085080000890800008D080000F1
:1003D0009108000095080000990800009D080000A1
:1003E000A1080000A5080000A9080000AD08000051
:1003F000B1080000B5080000B9080000BD08000001
:10040000FFFFFFFFFFFFFFFFFFFFFFFFDEF9FFFF23
:10041000044B05481B1A062B02D9044B03B118479D
:10042000704700BF0300FF1F0000FF1F0000000017
:1004300005490648091A891001EBD171491002D00B
:10044000034B03B1184770470000FF1F0000FF1F58
:100450000000000010B5064C237843B9FFF7D8FF21
:10046000044B13B10448AFF300800123237010BD87
:100470000000FF1F00000000040B000008B5084B3F
:100480001BB108490848AFF300800848036813B956
:10049000BDE80840CCE7064B002BF9D09847F7E7BA
:1004A000000000000400FF1F040B00000000FF1FFD
:1004B000000000007047034B53F8203003B1184789
:1004C000704700BF1C00FF1F0220F4E70320F2E783
:1004D0000420F0E70520EEE70620ECE70720EAE736
:1004E0000820E8E70920E6E70A20E4E70B20E2E736
:1004F0000C20E0E70D20DEE70E20DCE70F20DAE736
:100500001020D8E71120D6E71220D4E71320D2E735
:100510001420D0E71520CEE71620CCE71720CAE735
:100520001820C8E71920C6E71A20C4E71B20C2E735
:100530001C20C0E71D20BEE71E20BCE71F20BAE735
:100540002020B8E72120B6E72220B4E72320B2E735
:100550002420B0E72520AEE72620ACE72720AAE735
:100560002820A8E72920A6E72A20A4E72B20A2E735
:100570002C20A0E72D209EE72E209CE72F209AE735
:10058000302098E7312096E7322094E7332092E735
:10059000342090E735208EE736208CE737208AE735
:1005A000382088E7392086E73A2084E73B2082E735
:1005B0003C2080E73D207EE73E207CE73F207AE735
:1005C000402078E7412076E7422074E7432072E735
:1005D000442070E745206EE746206CE747206AE735
:1005E000482068E7492066E74A2064E74B2062E735
:1005F0004C2060E74D205EE74E205CE74F205AE735
:10060000502058E7512056E7522054E7532052E734
:10061000542050E755204EE756204CE757204AE734
:10062000582048E7592046E75A2044E75B2042E734
:100630005C2040E75D203EE75E203CE75F203AE734
:10064000602038E7612036E7622034E7632032E734
:10065000642030E765202EE766202CE767202AE734
:10066000682028E7692026E76A2024E76B2022E734
:100670006C2020E76D201EE76E201CE76F201AE734
:10068000702018E7712016E7722014E7732012E734
:10069000742010E775200EE776200CE777200AE734
:1006A000782008E7792006E77A2004E77B2002E734
:1006B0007C2000E77D20FEE67E20FCE67F20FAE637
:1006C0008020F8E68120F6E68220F4E68320F2E638
:1006D0008420F0E68520EEE68620ECE68720EAE638
:1006E0008820E8E68920E6E68A20E4E68B20E2E638
:1006F0008C20E0E68D20DEE68E20DCE68F20DAE638
:100700009020D8E69120D6E69220D4E69320D2E637
:100710009420D0E69520CEE69620CCE69720CAE637
:100720009820C8E69920C6E69A20C4E69B20C2E637
:100730009C20C0E69D20BEE69E20BCE69F20BAE637
:10074000A020B8E6A120B6E6A220B4E6A320B2E637
:10075000A420B0E6A520AEE6A620ACE6A720AAE637
:10076000A820A8E6A920A6E6AA20A4E6AB20A2E637
:10077000AC20A0E6AD209EE6AE209CE6AF209AE637
:10078000B02098E6B12096E6B22094E6B32092E637
:10079000B42090E6B5208EE6B6208CE6B7208AE637
:1007A000B82088E6B92086E6BA2084E6BB2082E637
:1007B000BC2080E6BD207EE6BE207CE6BF207AE637
:1007C000C02078E6C12076E6C22074E6C32072E637
:1007D000C42070E6C5206EE6C6206CE6C7206AE637
:1007E000C82068E6C92066E6CA2064E6CB2062E637
:1007F000CC2060E6CD205EE6CE205CE6CF205AE637
:10080000D02058E6D12056E6D22054E6D32052E636
:10081000D42050E6D5204EE6D6204CE6D7204AE636
:10082000D82048E6D92046E6DA2044E6DB2042E636
:10083000DC2040E6DD203EE6DE203CE6DF203AE636
:10084000E02038E6E12036E6E22034E6E32032E636
:10085000E42030E6E5202EE6E6202CE6E7202AE636
:10086000E82028E6E92026E6EA2024E6EB2022E636
:10087000EC2020E6ED201EE6EE201CE6EF201AE636
:10088000F02018E6F12016E6F22014E6F32012E636
:10089000F42010E6F5200EE6F6200CE6F7200AE636
:1008A000F82008E6F92006E6FA2004E6FB2002E636
:1008B000FC2000E6FD20FEE5FE20FCE5FF20FAE539
:1008C000052809D006280CD0042804D1074A13684B
:1008D00043F4803313607047044A136843F40033D1
:1008E000F8E7024A136843F48023F3E724ED00E0BD
:1008F000FFF7E6BF0E2809D00F280CD0022804D13C
:10090000074A136843F0004313607047044A1368B2
:1009100043F08053F8E7024A136843F08063F3E73B
:1009200004ED00E00E2802D00F2806D07047054ADB
:10093000136843F0006313607047024A136843F082
:100940000073F8E704ED00E004380B2825D8DFE851
:1009500000F0060B10242424241524241A1F104B05
:100960001868C0F3403070470D4B1868C0F38030F2
:1009700070470B4B1868C0F300307047084B18687D
:10098000C0F3C0307047074B1868C0F30070704761
:10099000044B1868C0F3806070470020704700BFA8
:1009A00024ED00E004ED00E004380B2809D8DFE86E
:1009B00000F006090B080808080F08080D0F054B82
:1009C00019707047044BFBE7044BF9E7044BF7E75A
:1009D000044BF5E718ED00E019ED00E01AED00E03A
:1009E0001EED00E01FED00E01030024B43F8201038
:1009F000704700BF1C00FF1FEF2805D81030C0B2A1
:100A00001030024B43F82010704700BF1C00FF1F3E
:100A1000054B064920221A600B6843F480730B6073
:100A2000034B1A60704700BF94F00F4014B00440AD
:100A300084F00F40054B064920221A600B6843F4EE
:100A400080730B60034B1A60704700BF94F00F4037
:100A500014B0044088F00F4084B043F69821019010
:100A6000019B5A1E01920BB904B070470391039B7E
:100A70005A1E0392002BF3D000BFF8E707B571B6FA
:100A80000A4A136843F47853136014230193019BBB
:100A90005A1E0192002BFAD1FFF7BAFFFFF7CAFFE7
:100AA0000120FFF7D9FFFFF7C5FFFCE738800440BE
:100AB00008B50A4A0A4B0B498B4206D30A4B0B4A2C
:100AC0000021934206D3FFF7D9FF52F8040F43F8F1
:100AD000040BF1E743F8041BF3E700BF000B000031
:100AE0000000FF1F0000FF1F0000FF1F1C04FF1F6E
:100AF000F8B500BFF8BC08BC9E4670477D040000F6
:040B0000F8B500BF85
:00000001FF
